:020000001628C0
:0E0006008312031327088A00260882000800D0
:1000140003208A110A128000840AA60A0319A70A77
:08002400F003031D0A28080087
:10002C0083120313A001A101A201A301A401A50144
:10003C00073083169F003030870001308500860121
:10004C0088010F308312870086018801071AD42893
:10005C008801A401A5018030F000803025067002D3
:10006C00031D3A282408033C031CD32824088600CB
:10007C00A201A3018030F000803023067002031D22
:10008C0049282208093C031CCB280430F100220823
:10009C00F000710803195628F00D7010FF3E50281F
:1000AC0024087004860000302506031D5F280030EC
:1000BC002406031D6B2800302306031D672800301F
:1000CC002206031D6B280815881500302506031D14
:1000DC00712802302406031D7E2800302306031DE0
:1000EC00792800302206031D7E2808110810881478
:1000FC0000302506031D842802302406031D922897
:10010C0000302306031D8C2803302206031D922881
:10011C00081408168810881100302506031D98282D
:10012C0002302406031DA42800302306031DA0283A
:10013C0006302206031DA428881608120B30FB007B
:10014C002630FC005D30FD00FD0BAA28FC0BAA2814
:10015C00FB0BAA2800000000071EB6288801CB283C
:10016C0000302506031DBC2803302406031DC728B8
:10017C0000302306031DC42807302206031DC728A0
:10018C00CB28A20A0319A30A4028071ECF288801EE
:10019C00D328A40A0319A50A31284C298601871AE9
:1001AC0012298812081008168814A001A1018030A9
:1001BC002106F00080307002031DE6280430200276
:1001CC00031807290430F1002008F0007108031906
:1001DC00F328F00D7010FF3EED28700886000B30F0
:1001EC00FB002630FC005D30FD00FD0BFB28FC0BFA
:1001FC00FB28FB0BFB2800000000A00A0319A10A36
:10020C00DD2886010812881008158815871A11290F
:10021C00071E11290C294C2908118811081688145D
:10022C00A001A10180302106F00080307002031D76
:10023C00212904302002031842290430F10020083F
:10024C00F000710803192E29F00D7010FF3E2829BB
:10025C00700886000B30FB002630FC005D30FD0082
:10026C00FD0B3629FC0B3629FB0B36290000000050
:10027C00A00A0319A10A18298601081288108816E9
:10028C000814871E4C29071E4C2947292C284D2958
:02400E004A2F37
:00000001FF
